:100000000C942A000C9434000C9434000C943400AA
:100010000C9434000C9434000C9434000C94340090
:100020000C9434000C9434000C9434000C94340080
:100030000C9434000C9434000C9434000C94340070
:100040000C9434000C9434000C9434000C94340060
:100050000C94340011241FBECFE5D4E0DEBFCDBF29
:100060000E94F0000C949D040C9400005E9A8CB9E0
:100070005E9BFECF08958F929F92AF92BF92CF92D8
:10008000DF92EF92FF920F931F93DF93CF93CDB741
:10009000DEB72A970FB6F894DEBF0FBECDBF6B0157
:1000A0007C01AA24BB244E010894811C911C84016C
:1000B0000A0D1B1DC701B6012AE030E040E050E008
:1000C0000E947B04605DF80160830894A11CB11C50
:1000D000C701B6012AE030E040E050E00E947B0416
:1000E000C901DA016C017D01C114D104E104F104FC
:1000F000F1F6F5013197E80DF91D80815E9A8CB912
:100100005E9BFECF3197EC17FD07B9F72A960FB625
:10011000F894DEBF0FBECDBFCF91DF911F910F913D
:10012000FF90EF90DF90CF90BF90AF909F908F9017
:1001300008950895DC9A5F9BFECFDC988CB10895FA
:10014000BD9AA79ABF9AAF9AC7980895AF98C798D3
:100150002FE030E0C7982F30310511F4C5980DC05D
:100160002E30310541F02D30310511F4C5980EC007
:100170002C30310511F4C59A09C02C30310534F406
:1001800087FF02C0C59A01C0C598880FC79A215041
:1001900030409FEF2F3F3907E9F6AF9A089590E07E
:1001A0009C012A7A30703595279585759070880F57
:1001B000991F282B30E0C9018C7C9070959587950C
:1001C0009595879523733070220F331F220F331FAD
:1001D000822B282F22952F708295807F822B089565
:1001E0002F923F924F925F926F927F928F929F9247
:1001F000AF92BF92CF92DF92EF92FF920F931F9335
:10020000DF93CF93CDB7DEB727970FB6F894DEBF55
:100210000FBECDBFD79A8AB3807F8ABB87B3847E57
:1002200087BB8F9AD49ABD9AA79AAF9ABF9A95988E
:100230008D9896988E988C9AA19A8A988898899A7F
:10024000A09AA8988AB188618AB980B5866880BD6D
:1002500010BC8CE089B98FB580618FBD8EB5896087
:100260008EBD0E94A0002FE72D832C8342E7E42E51
:100270001B82772473944424439455245394662416
:1002800063941A824FEF498330E2932E20ED222EA1
:1002900027E0322E02C095E4E92E5F9BFECF8CB1A1
:1002A000833609F474C18436B8F4843509F4C1C0C6
:1002B000853548F4833409F406C2833509F4A3C2B2
:1002C000813459F73BC1813609F41DC1823608F0EB
:1002D00070C08A3511F756C1823709F4D5C083370B
:1002E00048F48D3609F445C18F3609F4C8C0893603
:1002F000A1F6A7C0843709F462C0843708F40DC2A0
:10030000863719F08A3749F638C15E9A84E48CB989
:100310005E9BFECF5E9A83E58CB95E9BFECF5E9AB4
:100320008FE48CB95E9BFECF5E9A9CB85E9BFECF3D
:100330005E9A86E58CB95E9BFECF5E9A85E68CB9A7
:100340005E9BFECF5E9A52E75CB95E9BFECF5E9AE3
:1003500083E78CB95E9BFECF5E9A89E68CB95E9B83
:10036000FECF5E9A9FE69CB95E9BFECF5E9A8EE6BC
:100370008CB95E9BFECF5E9A9CB85E9BFECF5E9A68
:1003800081E38CB95E9BFECF5E9A8EE28CB95E9B58
:10039000FECF5E9A80E38CB95E9BFECF5E9A8AE0C8
:1003A0008CB95E9BFECF5E9A8DE08CB95E9BFECFD2
:1003B00074CF5E9AE1E0ECB95E9BFECF6ECF5F9B9F
:1003C000FECF5E9AF4E7FCB95E9BFECF2CB12D8385
:1003D000822F0E94A6005E9A8AE08CB95E9BFECFB7
:1003E00061E070E080E090E00E943B005E9A8AE06D
:1003F0008CB95E9BFECF62E070E080E090E00E94EE
:100400003B005E9A8AE08CB95E9BFECF63E070E0B1
:1004100080E090E00E943B005E9A8AE08CB95E9B8F
:10042000FECF4D81642F70E080E090E00E943B00A1
:1004300034CF5F9BFECF5CB15C83852F0E94A6000A
:100440002CCF5F9BFECF8CB1823709F44BC286362E
:1004500019F486E6E82E21CF823519F402E5E02E64
:100460001CCF863419F416E4E12E17CF853619F423
:10047000B5E6EB2E12CF853409F40DCF0ECF5F9B7E
:10048000FECF8CB18B8309CF5F9BFECF8CB18133C4
:1004900049F41BBC1ABC959A8D9A969A8E9AA1E340
:1004A0007A2EFBCE823349F41BBC1ABC95988D9AE8
:1004B00096988E9AF2E37F2EF0CE833349F41BBCDC
:1004C0001ABC95988D9896988E98E3E37E2EE5CE8B
:1004D000843359F495988D9896988E988AE090E098
:1004E0009BBD8ABD74E3772ED8CE853309F0D5CE77
:1004F00095988D9896988E9880E197E29BBD8ABDDD
:1005000065E3762ECACE5F9BFECF8CB1813309F4B2
:10051000ECC1823319F452E3452EBFCE833319F474
:1005200043E3442EBACE843319F434E3432EB5CEDC
:10053000853309F0B2CE25E3422EAFCE5F9BFECFCE
:100540008CB1813309F4D4C1823319F492E3592E6A
:10055000A4CE833319F483E3582E9FCE843319F449
:1005600004E3502E9ACE853309F097CE15E3512E31
:1005700094CE5F9BFECF6CB090CE5F9BFECF9CB1C4
:100580009A838BCE5F9BFECFECB1E98386CE5E9AD9
:10059000F4E7FCB95E9BFECF5E9A2D812CB95E9B81
:1005A000FECF5E9A9CB85E9BFECF5E9A44E54CB946
:1005B0005E9BFECF5E9A5C815CB95E9BFECF5E9ACD
:1005C0009CB85E9BFECF5E9A83E78CB95E9BFECFA4
:1005D0005E9AECB85E9BFECF5E9A9CB85E9BFECFA7
:1005E0005E9A9FE69CB95E9BFECF5E9AEB81ECB96A
:1005F0005E9BFECF5E9A9CB85E9BFECF5E9AF2E752
:10060000FCB95E9BFECF5E9A7CB85E9BFECF5E9A85
:100610009CB85E9BFECF5E9A21E62CB95E9BFECF16
:100620005E9A4CB85E9BFECF5E9A9CB85E9BFECFF6
:100630005E9A81E48CB95E9BFECF5E9A5CB85E9B4D
:10064000FECF5E9A9CB85E9BFECF5E9A8DE68CB91B
:100650005E9BFECF5E9A6CB85E9BFECF5E9A9CB8A6
:100660005E9BFECF5E9A8AE78CB95E9BFECF5E9A58
:100670004A814CB95E9BFECF5E9A9CB85E9BFECFD2
:100680005E9A8AE58CB95E9BFECF5E9A59815CB911
:100690005E9BFECF5E9A9CB85E9BFECF5E9A82E622
:1006A0008CB95E9BFECF5E9A81E08CB95E9BFECFDB
:1006B0005E9A8AE08CB95E9BFECF5E9A8DE08CB923
:1006C0005E9BFECFEACDDC9ADF989798C101019737
:1006D000F1F7979AC1010197F1F7979880E02CB153
:1006E000882311F081E00BC080B390E09695879548
:1006F00096958795E1E0F0E08E279F278170829B99
:1007000008C0882331F05E9A83E48CB95E9BFECFEB
:1007100002C02E3621F7DC98C0CDDF9A8FEFFA8128
:10072000F89F500111242981289F60011124E0E0E5
:10073000F0E060E070E0462D50E05F834E838CB0C7
:1007400004C0A99AA9986F5F7F4F6A157B05C8F30B
:10075000CB9902C0FF2402C0A0E8FA2ECA9902C0B9
:1007600000E001C000E4C99902C010E001C010E23D
:1007700029B346B3B19902C0B0E001C0B4E0B39967
:1007800002C0A0E001C0A2E086B330E0217030706A
:1007900054E0220F331F5A95E1F750E0417050703A
:1007A00093E0440F551F9A95E1F7242B90E034E035
:1007B000969587953A95E1F78170282B2F29202B64
:1007C000212B2B2B2A2B5E9A2CB95E9BFECF3196C8
:1007D000262D0AC0A998A99AC1010197F1F7A998F5
:1007E000C1010197F1F721502223A1F78E819F814A
:1007F000680F791FEC15FD0508F072C09EE689169A
:1008000009F09DCF6DC0DF9A8FEFEA81E89F50011C
:100810001124F981F89F60011124E0E0F0E060E02C
:1008200070E0462D50E05F834E838CB004C0A99ADF
:10083000A9986F5F7F4F6A157B05C8F3CB9902C0FB
:10084000FF2402C0A0E8FA2ECA9902C000E001C04D
:1008500000E4C99902C010E001C010E229B346B318
:10086000B19902C0B0E001C0B4E0B39902C0A0E009
:1008700001C0A2E086B330E02170307054E0220F56
:10088000331F5A95E1F750E04170507093E0440FE8
:10089000551F9A95E1F7242B90E034E096958795C3
:1008A0003A95E1F78170282B2F29202B212B2B2B18
:1008B0002A2B5E9A2CB95E9BFECF3196862D03C003
:1008C000A99AA99881508823D9F78E819F81680FB2
:1008D000791FEC15FD0520F49EE6891609F0A5CFD9
:1008E000DF98DBCCF2E7EF2ED8CCE1E34E2ED5CC6F
:1008F00071E3572ED2CCA1E21A2EAA1BBB1BFD011D
:100900000DC0AA1FBB1FEE1FFF1FA217B307E407EE
:10091000F50720F0A21BB30BE40BF50B661F771F46
:10092000881F991F1A9469F7609570958095909526
:0E0930009B01AC01BD01CF010895F894FFCFEB
:00000001FF
